:0200000460009A
:100000004643464200000156000000000103030081
:1000100000000000000000000000000000000000E0
:1000200000000000000000000000000000000000D0
:1000300000000000000000000000000000000000C0
:1000400000000000010408000000000000000000A3
:100050000000200000000000000000000000000080
:100060000000000000000000000000000000000090
:100070000000000000000000000000000000000080
:10008000EB04180A063204260000000000000000FD
:10009000050404240000000000000000000000002F
:1000A0000000000000000000000000000000000050
:1000B0000604000000000000000000000000000036
:1000C0000000000000000000000000000000000030
:1000D00020041808000000000000000000000000DC
:1000E0000000000000000000000000000000000010
:1000F0000000000000000000000000000000000000
:10010000D8041808000000000000000000000000F3
:100110000204180804200000000000000000000095
:1001200000000000000000000000000000000000CF
:10013000600400000000000000000000000000005B
:1001400000000000000000000000000000000000AF
:10015000000000000000000000000000000000009F
:10016000000000000000000000000000000000008F
:10017000000000000000000000000000000000007F
:10018000000000000000000000000000000000006F
:10019000000000000000000000000000000000005F
:1001A000000000000000000000000000000000004F
:1001B000000000000000000000000000000000003F
:1001C000000100000010000001000000000000001D
:1001D000000001000000000000000000000000001E
:1001E000000000000000000000000000000000000F
:1001F00000000000000000000000000000000000FF
:10020000FFFFFFFFFFFFFFFFFFFFFFFFFFFFFFFFFE
:10021000FFFFFFFFFFFFFFFFFFFFFFFFFFFFFFFFEE
:10100000D1002043491600600000000000000000ED
:10101000201000600010006000D00560000000009B
:101020000000006000DC050000000000FFFFFFFF83
:10103000FFFFFFFFFFFFFFFFFFFFFFFFFFFFFFFFC0
:10104000FFFFFFFFFFFFFFFFFFFFFFFFFFFFFFFFB0
:10105000FFFFFFFFFFFFFFFFFFFFFFFFFFFFFFFFA0
:10106000FFFFFFFFFFFFFFFFFFFFFFFFFFFFFFFF90
:10140000814205D051F8043B40F8043B8242F9D8B0
:10141000704700BF044A05494FF0000342F8043BFF
:101420009142FBD8704700BFC0FE0020601E012023
:101430002DE98848BFF34F8F00BF00BF00BF00BF3A
:1014400000F040F9674B0822C3F8542100BF00BFE9
:1014500000BF00BF00BF00BF00BF00BF00BF00BF94
:1014600000BF00BF00BF00BF00BF00BF5E4A5F49B2
:101470005F48FFF7C5FF5F4A5F496048FFF7C0FF5D
:101480005F4CFFF7C7FF4FF470004FF0E0210023DF
:101490005C4AC1F8880D44F823200133B02BFAD1FF
:1014A000594B8021594A03F8011B9342FBD14FF05D
:1014B000E0254C4E4FF08039DFF880B1DFF880A195
:1014C0004FF0FF31C5F8084D0027C6F80491C6F863
:1014D00000B1C6F8F490C6F8F0A0D5F8243DDFF8C6
:1014E000648143F4E0234A4AC5F8243DD8F81C300F
:1014F00023F07F0343F04003C8F81C30D8F82430B1
:1015000023F07F0343F04003C8F824309166D1668E
:101510001167516700F0DEF83E4B3F49A3633F4B34
:10152000E36363236B610323AF612B613C4BC5F81D
:10153000203DD5F8FC3D43F08073C5F8FC3D394BA8
:101540001A6842F001021A605B680B6000F04AF909
:10155000C6F804913448C6F800B1C6F8F490C6F84D
:10156000F0A000F0ADFAD8F86C10304B304A41F4DE
:101570004051C8F86C101F60C3F80871C3F81871A7
:10158000C3F82871C3F83871936BDB0708D442F6AF
:101590001563284951651365936B43F00103936309
:1015A000234A254C936843F00113936000F060F8E0
:1015B00000F092FA00F044F900F086F82368132B4B
:1015C000FCD900F0D5F92368B3F5967FFBD300F082
:1015D0007FF800F07BF800F083FA00F079FA30BF72
:1015E000FDE700BF00800D40A8B40400241C00608B
:1015F00000000000C0FE0020D0D0046000000020E9
:1016000000FC0020350E000000E400E0A0E400E053
:1016100000C00A406D220000081E01207122000057
:1016200000002020001000E00046C32300400840D6
:1016300000400D400000C0560C1E01201B10182059
:101640000C0D111300C00F40054B4FF42A01054A41
:1016500005485A641864054A99639546FFF7E8FE01
:1016600000C00A40FFFFAFAA0700200000000320CF
:10167000104BA020104AD96E41F4403110B4D96605
:1016800040F23764D96E41F44071D9665464906475
:10169000936C1B06FCD4094A40F23761A0235164C5
:1016A0009364936C13F08003FBD1054A13705DF8CB
:1016B000044B704700C00F4000400C4000800C40BD
:1016C000321E0120704700BF704700BF704700BF47
:1016D00000BF704710B44FF0E023002110243148C0
:1016E000C3F8941DC3F89C4D1124C3F8A00D2E48D7
:1016F000C3F89C4D1224C3F8A00D2C48C3F89C4D90
:101700002B4AC3F8A00D2B4C42F015022A48C3F80F
:101710009C4DC3F8A00D294C2948C3F89C4DC3F833
:10172000A00D284CC3F89C2D2748284AC3F8A04D8B
:10173000C3F89C0DC3F8A02D02F5A022244C0C3256
:101740002448C3F89C4DC3F8A02D234AC3F89C0D30
:10175000224CC3F8A02D02F14062C3F89C4D2048F2
:10176000C3F8A02D0C32C3F89C0DC3F8A02D00BF08
:1017700000BF00BF00BF00BF0122C3F8942DBFF31C
:101780004F8FBFF36F8FC3F8501FBFF34F8FBFF35F
:101790006F8FD3F8142D5DF8044B42F44032C3F838
:1017A000142D70473F0000102500080709001000A5
:1017B000601E0120130020002100020714000020F9
:1017C00025000813090000101600202027000B1325
:1017D00017000040180000602F000B071900007070
:1017E0001A000080F0B4154A40274FF480314FF4BE
:1017F00080564FF400554FF4404443F242001369C1
:1018000013F0020F0ED113F4005F0FD013F4805FBA
:101810000ED0002BF3DA13F4803F0BD15B060BD50F
:10182000F0BC7047946151619061E8E75561E6E76B
:101830005661E4E79161E2E75761E0E700800D401F
:101840003F4A03203F49F3EE095AD2F880304FF067
:10185000000C9FED3D6A23F001039FED3C5A30B42C
:10186000C2F88030C2F89000D1F8E010384DCBB209
:10187000384C39482B6007EE903A0B0DC1F30B2121
:10188000F8EEE77A06EE903A07EE101A334BB8EE10
:10189000C77A2160F8EEE66A314937EEC66A37EE5C
:1018A000C55A76EEC76A77EEE57A26EE266AC3ED6C
:1018B000006A25EE265AD2F8803067EEA64AC0EDBF
:1018C000007AC6EE275A274885EE276AC4EEA76A33
:1018D00075EE875AFCEEE55A36EE076A15EE904A29
:1018E000BCEEC66A43EA045376EE877AC2F88030CB
:1018F00016EE103AD2F89041FCEEE77A01EA034185
:10190000214317EE903AC2F89011C3F30B03D2F8BB
:1019100090110B431449C2F89031D2F8803043F053
:101920000203C2F88030114B80F840C0C1F840314A
:101930004FF0E023012230BCC3F80821704700BFFC
:1019400000810D4000441F400000AA420000B44244
:10195000181D0120141D01201C1D0120201D012027
:101960000000FF0F00E400E000FC00203510000044
:10197000314B40F6617210B5C3F8202140F20444A7
:1019800000F0B2F82D4A2E49D2F880302D4843F0AD
:101990000303C2F880302C4BC1F8604102681A4240
:1019A00003D1D1F8A8319A071BD0254A4FF0004146
:1019B000244B5963D2F8403143F00203C2F840315E
:1019C000D2F840319B07FBD44FF400304FF0E021B8
:1019D0001C4B4FF00042C1F88C0219209A6300F0B2
:1019E0006BF8184A4FF08040154C002190630A2094
:1019F000164B11604FF42072C4F8A801184600F08D
:101A000063F84FF4800203464FF4810040F2431123
:101A10001860C4F858311A640D4B0E4AC4F84811C6
:101A2000C3F804224FF0E0224FF400310123C2F842
:101A30000C11C4F8403110BD00800D4000C00F40B3
:101A400000002E4000900D40001C1E0000000020F1
:101A500000FC00201D12000008B50E4B1B6E9B07FA
:101A600000D4FBBE72B60C4B00200C4AC3F84001F8
:101A700003F160430A49A3F55F2311649D46BFF358
:101A80004F8F4FF400130748074ADB6902609B68D9
:101A9000984700BF00441F4000002E4000C00A408D
:101AA0000300200000802020000012EBF8B500BFEA
:101AB000F8BC08BC9E4670475FF800F0210B0000A0
:101AC0005FF800F0310800005FF800F0397D030096
:101AD0005FF800F08D0C00005FF800F0F5290000C1
:101AE0005FF800F015AD03005FF800F08D190000FD
:101AF000450000006900000081010000850200002F
:101B0000EDE100007D4B0100C9EC0100E99102000C
:0C1B1000659B0200FDC40200BDC702007E
:101B1C00160355005300420020005300650072006C
:101B2C00690061006C00000018035400650065003A
:101B3C006E00730079006400750069006E006F0020
:101B4C000403090409026200030100C032080B00FF
:101B5C000202020100090400000102020100052436
:101B6C0000100105240101010424020605240600CD
:101B7C00010705820310001009040100020A00008D
:101B8C00000705030240000007058402400000091D
:101B9C0004020002FF6AFF000705810240000107F2
:101BAC00050102400001000009026200030100C0AF
:101BBC0032080B00020202010009040000010202BB
:101BCC000100052400100105240101010424020672
:101BDC000524060001070582031000050904010015
:101BEC00020A000000070503020002000705840238
:101BFC000002000904020002FF6AC7000705810207
:101C0C000002010705010200020100000A060002A1
:081C1C00EF020140010000008D
:101C240000000000000000000000000000000000B0
:101C340000000000000000000000000000000000A0
:101C44000548064B1B1AD90F01EBA301491002D01A
:101C5400034B03B118477047C0FE0020C0FE0020AC
:101C64000000000008B5054B1BB105490548AFF35A
:101C74000080BDE80840FFF7E3BF00BF000000009C
:101C8400C01C012000DC056010B5054C204602F0A4
:101C94002DFF2046034A0449BDE8104002F046BD2A
:101CA4008C17012020ED0020F12E00002DE9F843CF
:101CB400204D4FF4FA7000F043FD1F4C2E6840F2A3
:101CC400EE281E4FDFF87C9002F052F8237823B3FD
:101CD4003B78DB0721D52B68D9F800209B1A0E2B03
:101CE4001BD9174800F0C6F9142000F029FD5A2228
:101CF4000021134800F04AF95A220121104800F04B
:101D040045F93C2200210E4800F01AF93C22012139
:101D14000B48BDE8F84300F013B92B6822789B1BED
:101D24002AB1B3F5FA6FDCD802F022F8CCE74345C8
:101D3400FAD9D6E70C1E01203A1E0120391E0120D3
:101D4400CC1B01201C1E0120152008B500F03CF816
:101D5400152000F039F8F2EE047AB4EEE70AF1EE59
:101D640010FA0DDD41F2941200210C4800F0B6F88F
:101D740041F2941201210948BDE8084000F0AEB8D0
:101D840041F64C520021054800F0A8F841F64C52A7
:101D940001210248BDE8084000F0A0B8CC1B012096
:101DA40010B5054C204602F0A1FE2046034A044922
:101DB400BDE8104002F0BABC9017012020ED0020CD
:101DC400F12E00000000000038B56424C5B22DEDEA
:101DD400028B9FED2F8A284600F0E2FA07EE900A64
:101DE400013CF8EEE77A38EE278AF4D1DFED297A60
:101DF40088EE277A9FED1E5B9FED1F6B9FED201BE6
:101E0400B7EEC77A27EE057B27EE067BB7EEC77BD6
:101E1400B7EEC78AB0EE480B32F0C2FBB0EE407B9F
:101E2400B0EE480B02211C489FED176B27EE067B92
:101E3400B7EEC78B00F0C4F90321184801F01AFF6C
:101E44000221B7EEC80A144800F0BAF90321144875
:101E540001F010FF104800F095F9642000F070FCC8
:101E6400B0EE480ABDEC028B38BD00BFAFF3008072
:101E74006666666666660A40000000000000503F21
:101E8400F6285C8FC2F5F2BFA01A2FDD24263B4052
:101E9400000000000000C842F8EB00209C1E002057
:101EA400A01E002010B5022282B0084C4FF4E1338A
:101EB40000920749204600F0C5F8064A0649204624
:101EC40002B0BDE8104002F031BC00BFCC1B0120C1
:101ED40008EC002020ED002039040000A1F12003CB
:101EE400DBB2DE2B04D9A2F6AC53B3F5FA5F02D908
:101EF4004FF0FF30704710B502F07F0384B0803993
:101F04004FEAD21E046803228DF8081002A98DF846
:101F14000A3003AB8DF809E000922468A04758B159
:101F24009DF80D009DF80E30C00103F07F0300F40E
:101F34007E50184304B010BD4FF0FF3004B010BD04
:101F4400A1F12003DBB2DE2B02D9531E7E2B02D972
:101F54004FF0FF30704730B5403985B00568032431
:101F640001238DF80A208DF8081022468DF80930D7
:101F740002A9009403AB2D68A84718B19DF80E0080
:101F840005B030BD4FF0FF3005B030BDA1F12003E6
:101F9400DBB2DE2B02D9531E7E2B02D94FF0FF3069
:101FA400704730B5403985B00568032402238DF8A5
:101FB4000A208DF8081022468DF8093002A90094F1
:101FC40003AB2D68A84718B19DF80E0005B030BDCD
:101FD4004FF0FF3005B030BD2DE9F04104464068B4
:101FE4009DF8186000282BD01D46036888461746C4
:101FF400DB689847207A012100F0F6FB60683A46D6
:10200400414603685B68984760680368DB689847E3
:1020140003E0606803685B69984760680268126956
:1020240090470028F5DC207A002100F0DDFB3246E1
:102034002946606800F07AF9301AB0FA80F0400955
:10204400BDE8F081C0E90112C360009A014B02614E
:1020540003607047DC48002010B5054B0446406817
:10206400236010B103681B6A9847204610BD00BF67
:10207400DC48002010B50446406880B1036806229D
:10208400E168DB699847636822690121207A9A60D4
:1020940000F0D4FB207A002100F0A6FB012010BD43
:1020A400014802F0D3B900BF08EC0020084601F053
:1020B400CBBD00BF012A70B508BF0A228AB091B314
:1020C4004FF0210E01E05FFA86FE0EF1FF36B1FB00
:1020D400F2F502FB15145FFA84FC092C0CF13704A9
:1020E4000CF1300C98BF5FFA8CF40EF1280C88BF09
:1020F400E4B29142EC4429460CF8244CE3D24BB1AF
:102104000EF1FF3E2D225FFA8EFE0EF128036B4482
:1021140003F8242C036801A9CEF122025B68714400
:1021240098470AB070BD30224FF0210E8DF825205B
:10213400E5E700BF2DE9F0410C46D1B1EAB1804694
:102144008E1800250E4F04E001F07EFDB4420544D4
:102154000CD0D8F8003014F8010B1B68BB42F3D044
:10216400014640469847B4420544F2D12846BDE8AA
:10217400F0810D462846BDE8F0811546F6E700BF1C
:102184008D04000000B5036883B040F60D2C0222D4
:1021940001A95B68ADF804C0984703B05DF804FB7F
:1021A400054B022888BF034610B41C6818466368B0
:1021B4005DF8044B184700BFF8EB00200000000056
:1021C400B4EE400B70B5F1EE10FA05462DED028B1E
:1021D40086B07CD6B0EEC07B9FED476BB4EE467BF9
:1021E400F1EE10FA6BDC9FED467BB4EEC70BF1EE1B
:1021F40010FA5ADC9FED447BB4EEC70BF1EE10FAF3
:1022040053D4B5EEC00B0C46F1EE10FA5BD40023A8
:10221400B6EE007B002C5ED04FF0000C9FED3C6BC3
:102224000CF1010C27EE067B5FFA8CF2A242F7D385
:1022340030EE070B0A222846FCEEC07BB8EE678B13
:1022440017EE901A30EE488BFFF734FF0F2C4FF047
:102254002E03B2EE046B064628BF0F248DF8083017
:102264000DF1090302AA611E53FA81F128EE060B4F
:10227400FCEEC07BCDED017A9DF8043007EE903A78
:102284003033B8EEE78B02F8013F914230EE488BD1
:10229400ECD12B68013402A928465B68E2B2984766
:1022A400304606B0BDEC028B70BD2B6803221A4980
:1022B4005B6806B0BDEC028BBDE87040184703684C
:1022C40003221649F4E7B1EE400B0123A0E70368AB
:1022D40003221349ECE730EE070B0A222846FCEEF2
:1022E400C07B17EE901A06B0BDEC028BBDE87040BF
:1022F400FFF7E0BEAFF30080FFFFFFFFFFFFEF7FBC
:10230400000000E0FFFFEF41000000E0FFFFEFC12D
:102314009A9999999999B93F0C1F0020081F002098
:10232400041F002001F080BC01F018BC2DE9F04727
:10233400884651B3914662B382460027164C174E25
:1023440025680BE001F070FC002810DA01F010FDA4
:102354002368DAF808205B1B934210D2DAF80030C5
:102364005B69B342EED0504698470028EEDB013754
:1023740008F8010BB945E3D13846BDE8F0870123DD
:1023840038468AF80C30BDE8F0870F463846BDE879
:10239400F0871746F0E700BF0C1E01200507000078
:1023A4001C2849D8F8B5254F04463B78E3B9244B9B
:1023B4001B5DFF2B29D0234A02EB041291680A68A3
:1023C40002F44050B0F5805F30D01C061FD41E4C80
:1023D4002360236AD80704D401F0CAFC236AD9070E
:1023E400FAD5194B586AF8BD174D184E01E001F0A3
:1023F400BFFCAB6C1B06FAD4B36C13F08003F6D1AC
:102404003B700F4B1B5DFF2BD5D10020F8BD0F4C4B
:1024140003F07F032360236ADA0704D401F0A8FCE5
:10242400236ADB07FAD5094B586AF8BD22F48052B7
:102434001C060A60EBD4CAE700207047321E012054
:1024440020E100206CDE002000400C4000800C40A5
:10245400A249A34B88422DE9F047A24C5E699A69D0
:10246400D4F80C801BD9A04B984240F20281C31AC5
:102474009E491B0AA1FB031340F22761DB0903EB0E
:10248400830303EB830303F2E2438B4228BF0B462F
:10249400A3F54877964BA3FB0737FF0804E0954F55
:1024A400B8428CBF0E2706278D4908F01F09D1F8C2
:1024B4008030B94543F0C003C1F880300CD228F015
:1024C4001F08A1F5F82148EA0708C1F80C800B6839
:1024D400002BFCDA08F01F0916F0007324D186499A
:1024E4000C698649A14300F0EA8082F480513446A5
:1024F4004FF4805514F0605F04D026F060561E43FC
:10250400774B5E6111F4405F07D022F44052744966
:102514002A438A618B6C1A07FCD446F00076704A11
:102524005661936C9B06FCD4754CA04200F2CE809D
:102534004FF0010C0146634603FB011203F1010E47
:102544000CF10105A24218D8BEF1080F4FF00103A7
:1025540040F08D80BCF1040F00F291800A18A24271
:1025640000F2A48005FB00F1AC4603F1010E03FB6D
:1025740001120CF10105A242E6D90CF1FF318C02E3
:1025840086EA81215F4810445F4A90427FD9DFF890
:10259400A4A16C225D48584DB0FBFEF0D5F800E0D4
:1025A400B0FBFCF0DFF890C10EEA0C0CD44509D066
:1025B40042F400524FF4805CC5F800C02A602A68D7
:1025C400002AFCDA464A156905F007059D4203D046
:1025D4001361936CDD03FCD411F4E05F09D026F49D
:1025E400E05604F4E0543E4A26435661936C99073E
:1025F400FCD44749474A014491423CD8464BC90957
:10260400A3FB0131090B4B1E1B0286EA030212F4E1
:10261400407F06D026F4407603F44073304A3343B7
:1026240053612F4A536923F000735361936C9B06E3
:10263400FCD43A4B4F45A3FB00234FF0FF324FEA43
:102644009343B0FBF1F1B2FBF3F3354A1060354A22
:102654001160354A136008D228F01F08214A48EA5D
:102664000707D7601368002BFCDABDE8F0877346D0
:1026740062E7122718E74FF440730421C5E70CF111
:10268400FF31204807238C02104486EA8121274A1F
:10269400DFF8A8A0A2FB0020020D2548362A38BF87
:1026A400362202FB00F042EA0A0A74E74FEA8C245D
:1026B400002386EA8C214FF0010EAC4662E71D46EA
:1026C40086F0C05411464FF0C05313E700244FF076
:1026D400010C024631462346E64653E700A4781F20
:1026E40000C00F40000008400046C32323B24C0042
:1026F4001F85EB5100366E0100800D404030008094
:10270400FFB19F26808D5B00FF7EF64D00643F4D38
:102714007FD1F0087F17B42C9F10E50083DE1B43A4
:10272400F4EB0020F0EB0020041E0120819F5E16D4
:10273400001BB7006C2000807F30018000200080E7
:1027440000B970472DE9F84F01218146214C224DF3
:10275400224E54E8003F2A68306844E80013002BF6
:10276400F7D11F494B684FF47A7BDFF878A01B1A26
:1027740001270BFB02F8DAF80020A3FB02325A45CA
:1027840094BF9044D84454E8003F2A68306844E831
:102794000073002BF7D14B68DAF800C01B1A0BFB4F
:1027A40002F2A3FB0C3CBCF57A7F94BF624402F5B1
:1027B4007A72A2EB0802B2F57A7F06D3B9F1010965
:1027C40008F57A78DFD1BDE8F88F01F0D1FA044931
:1027D400D9E700BF101E01200C1E0120081E012095
:1027E400001000E0041E0120272816D80201104B17
:1027F40003EB00109B5810B4C2685C68144205D007
:1028040061B95DF8044BC3F888207047836851B1FF
:10281400084A5DF8044B1A60704770475DF8044B32
:10282400C3F884207047044A5DF8044B1A6070476B
:102834006CDE002038F0010038300100272829D848
:10284400164B0201012903EB00109A5810B4536887
:10285400C4680ED004290CD023EA040353608368AF
:10286400A9B1022917D003290CBF0D4A0D4A1A60D9
:1028740007E0234301295360836808D040F63802F7
:102884001A60436815225DF8044B1A6070473822B9
:102894001A60F6E77047044A1A60F2E76CDE00201B
:1028A400383001003800010038F0010008B5FFF7A6
:1028B400FDF9FFF749FA01F05BFAFAE7844641EAC9
:1028C400000313F003036DD1403A41D351F8043BA4
:1028D40040F8043B51F8043B40F8043B51F8043BF6
:1028E40040F8043B51F8043B40F8043B51F8043BE6
:1028F40040F8043B51F8043B40F8043B51F8043BD6
:1029040040F8043B51F8043B40F8043B51F8043BC5
:1029140040F8043B51F8043B40F8043B51F8043BB5
:1029240040F8043B51F8043B40F8043B51F8043BA5
:1029340040F8043B51F8043B40F8043B51F8043B95
:1029440040F8043B51F8043B40F8043B403ABDD204
:10295400303211D351F8043B40F8043B51F8043BA6
:1029640040F8043B51F8043B40F8043B51F8043B65
:1029740040F8043B103AEDD20C3205D351F8043B35
:1029840040F8043B043AF9D2043208D0D2071CBF01
:1029940011F8013B00F8013B01D30B88038060462A
:1029A400704700BF082A13D38B078DD010F00303A0
:1029B4008AD0C3F10403D21ADB071CBF11F8013B10
:1029C40000F8013B80D331F8023B20F8023B7BE75F
:1029D400043AD9D3013A11F8013B00F8013BF9D28A
:1029E4000B7803704B7843708B7883706046704724
:1029F40001F1FF3C70B56646002400E00134B0FBF1
:102A0400F2F502FB1503092B03F1370E03F1300332
:102A14005FFA8EFE98BF5FFA83FE9042284606F85E
:102A240001EFEBD2631C0022C818CA547CB1624681
:102A34001CF8015F10F8016DA1EB0C0302328CF855
:102A44000060013B521A057023449A42EFDB0846AA
:102A540070BD00BF72B6EFF30583524CC4F88430E6
:102A64001EF0040F0CBFEFF30882EFF309824FF05E
:102A7400E0234D4E4D4DD3F8280DD3F82C1DC4E959
:102A84002201D3F8341DD3F8383DC4E924139369E3
:102A9400C4F89830D369C4F89C3000F0DDF884EDB4
:102AA400280A01F031FE0B214FF0FF32C4F8A400D4
:102AB4000B46C4F880103E49301D5A40202402F0D1
:102AC4000103013C01FB03F383EA5202F7D1A8425C
:102AD40002D073680646EFE7324BC3F8A820BFF371
:102AE4004F8F4FF0E0233049324AC3F8701FC3F8C8
:102AF400702FBFF34F8FBFF36F8F2F4A02252F48DC
:102B0400D36E2F4943F44053D3660560D3692D48EF
:102B140023F07F0343F04003D3610B6883423DD825
:102B2400264D00214FF0E0234FF0FF3229600126AB
:102B3400C5F808112449C5F80011C5F80861C3F89F
:102B44008021C3F88421C3F88821C3F88C21C3F8F9
:102B5400902101E000F072F9D5F80C31002BF9D086
:102B64000134C5F80C614F2CF4D9184B02201849D4
:102B74004FF00042C1F840015A63D5F80C313BB91B
:102B8400144815490D4A0163D2F80C31002BFAD0D0
:102B94004FF0E023114AC3F80C2DFEE7FFF758FC71
:102BA400BEE700BF00FF272080FF2720A8FF2720C3
:102BB4002083B8EDA0FF272000C00F40004008404C
:102BC400F4EB0020803DCD0B009F240000900D40CD
:102BD40000002E4000800F40F100AD0B0400FA0508
:102BE4000A490A6838B108B513180948834204D859
:102BF40010460B6008BD1046704739F095FE0C2353
:102C04004FF0FF320360104608BD00BFFCEC00200B
:102C140000002820002070474FF0FF30704700BFAD
:102C24004FF4005300204B60704700BF01207047F1
:102C34004FF0FF30704700BF30BFFDE70078B0FAB7
:102C440080F04009704700BF01230370704700BF44
:102C540030BFFDE7FFF7FEBE124AD2F880305B07B3
:102C6400FBD5D2F880301048C3F30B230F4990ED05
:102C7400007A07EE903A91ED006AB8EE477A0C4A72
:102C8400F8EEE77A0B4BD2ED006A77EEC77A93ED54
:102C9400007AB8EE477A67EE867A87EEA60A37EEB0
:102CA400400A704700810D40141D01201C1D0120A5
:102CB400201D0120181D0120836BF0B41BB1536843
:102CC40043F40043536072B6446B3CB31A4B226026
:102CD400D3F8B0410C421DD1184E776804E07468F3
:102CE400E41BB4F5166F0BD2D3F8404144F480448E
:102CF400C3F84041D3F8B851D3F840416404EED549
:102D04000D4007D10C4CC0E90225D4F8B0310B4377
:102D1400C4F8B031426362B6F0BC7047064DC0E9F6
:102D24000224D5F8B0310B43C5F8B03102634263D5
:102D340062B6F0BC704700BF00002E40001000E0F7
:102D440070B5056B9DB106462A46002403E012685F
:102D54000134012A0CD0536813F08003F7D0326396
:102D64002CB12846B36B2D689847013CF9D170BD4E
:102D7400C6E90C33F4E700BF30B4D9B91F4C204B7B
:102D84000021204A01254FF0011099601D60C4E91B
:102D9400023180245C60C2F8BC01D2F8B0311A4818
:102DA4002B43C2F8B0310160D2F8B031002BFBD113
:102DB40030BC70470904154B104C012541F08001CB
:102DC4009860104A596000F580511D60D96000F583
:102DD4000051A364196100F5405100F58040596128
:102DE40000219861E164D2F8B03143F48033C2F831
:102DF400B031D2F8B031002BFBD1C0E70000002085
:102E0400C0FE002000002E40D41A0120E0FE002065
:102E1400084901220B7802FA00F023EA0000087046
:102E240030B9054AD2F8483123F08003C2F848315A
:102E3400704700BF351E012000002E402DE9F04FE1
:102E4400974C83B0D4F84471FB07C4F8447153D54C
:102E5400D4F8AC21002A4AD0924EDFF860A2DFF801
:102E64007492DFF874B2DFF87482C4F8AC21D6E946
:102E74000A20D4F8403143F40053C4F84031D4F864
:102E840040319D04F5D5D4F8403123F40053C4F8FF
:102E940040314FF00113C4F8B431D4F8B45115F0F3
:102EA4000115FAD193B28446CAF80050B3F5086FFD
:102EB40000F0CF8100F2DB8040F202318B4200F05F
:102EC400E78100F29A80822B00F0CB81B3F5817FF9
:102ED40040F08A8010F0780F83B200F003824FF044
:102EE4000113C4F8C031D4F8AC21002ABDD16C4A16
:102EF400D2F8BC31002B42D17E0616D5684BD3F8EC
:102F0400AC21C3F8AC21D3F8BC21C3F8BC21D3F85D
:102F1400B041002CFBD14FF0FF32C3F8B421D3F8F9
:102F2400843100F029FD604B1C60FC0103D55F4B2C
:102F34001B6803B19847B80103D55D4B1B6803B107
:102F44009847790708D5564BD3F8843113F40073A6
:102F540047D0584B01221A70514BD3F848311A0606
:102F64000AD53B0608D5544A13782BB1013BDBB292
:102F74001370002B00F0728203B0BDE8F08F4F494C
:102F8400C2F8BC310868034240F0D181464A146853
:102F94001C40B1D05FEA144810D0424E4FF00109F2
:102FA40098FAA8F5B5FA85F506EBC51009FA05F502
:102FB4004030FFF7C5FE38EA0508F1D1A4B2002C71
:102FC4009AD0384E4FF0010894FAA4F5B5FA85F575
:102FD40006EBC51008FA05F5FFF7B2FEAC43F3D1D2
:102FE4008AE7344A1370B7E7802B7FF478AF34480C
:102FF40002210580FFF7C0FE75E7B3F5A06F00F06E
:103004000B81A3F5D063012B3FF669AF2D4B5D68AF
:10301400002D3FF464AF1FFA8CFC4FEA124E04E01B
:103024001D690C33002D3FF45AAF1A887245F7D14D
:103034005A886245F4D14FEA1E22032A00F0A58182
:103044001A89000C824228BF0246BEF5007F40F078
:10305400A181184B1C4918781C4B0192002818BFF9
:1030640019461B48FFF72AFC194D019AE1E142F287
:1030740021218B427CD033D942F221318B4200F0A2
:1030840081804FF6C0018B427FF429AF10F47F4F4B
:1030940083B27FF424AF43F46E4363F30F0CB5E7BC
:1030A40000002E4000000020D81A0120201E01201C
:1030B400241E01203B1E01203C1E0120D41A0120A5
:1030C400DC1C0120F8E80020501B0060B41B0060E9
:1030D40000002020CC1A01205DCFC6B8C0012E40CC
:1030E400B3F5106F66D042F221018B427FF4F7AE44
:1030F400030C072B7FF4F3AEB24BB349F560D960F0
:10310400B249B360C3F80890C1E9002001221A60F3
:10311400AF4A5A60AF4A1A61D4F8B01141F00101C4
:10312400C4F8B01102F5805102F5005259619A6158
:10313400D4F8B031002BFBD1A74AF3649360012388
:10314400B264136048F2800353604FF00113C4F873
:10315400BC31D4F8B03143F48033C4F8B0314FF407
:103164008033CAF80030D4F8B031002BFBD1BAE672
:1031740080B238B9994BC2F307421968984B196069
:10318400984B1A70944B00229A60F2640122B36443
:103194001A6080225A604FF00113C4F8BC31D4F88D
:1031A400B03143F48033C4F8B031D4F8B031002BDB
:1031B400FBD198E6C2F307428B4B1A708B4BC4F8D1
:1031C400C8318B4BC4F8CC318A4BC4F8D03100F0F1
:1031D400D5FB80222946884836F0BEFB874B8022E7
:1031E400C6F8A0B0C6F8E0307B4BF5645A60012203
:1031F400B3649D601A604FF00113C4F8BC31D4F875
:10320400B03143F48033C4F8B031CAF80050D4F874
:10321400B031002BFBD166E66F4B0121F5641960D8
:1032240080219D60B36459604FF00113C4F8BC3130
:10323400D4F8B03143F48033C4F8B031D4F8B031A9
:10324400002BFBD1130C5B0643F08073C4F854319C
:1032540049E6654B01216A481B780370FFF78CFD32
:1032640041E683B210F078007FF439AE03F07F02B8
:1032740058F82210624A1080180600F19E80CB078D
:1032840001D50123137002215D48FFF775FD2AE67D
:1032940010F0780F83B27FF422AE03F07F0213F0B4
:1032A400800F58F8223014BF43F4803343F00103F5
:1032B40048F822300022484BF2649A600122B36439
:1032C4001A6080225A604FF00113C4F8BC31D4F85C
:1032D400B03143F48033C4F8B031D4F8B031002BAA
:1032E400FBD100E603F07F0213F0800F58F8223080
:1032F40014BF23F4803323F0010348F82230002262
:10330400354BF2649A600122B3641A6080225A60D9
:103314004FF00113C4F8BC31D4F8B03143F4803316
:10332400C4F8B031D4F8B031002BFBD1DBE5002078
:10333400086026490C88486842F221018C427FF4D7
:1033440025AE80B200287FF421AE2E492E4C03C94D
:10335400A18086284FEA11412060A1717FF416AE46
:1033640072B62A48017841F008010170D2F8481178
:103374000D0605D480200143C2F84401C2F8481167
:1033840062B6234A5021117000E6000C2A7882426A
:1033940028BF0246BEF5E06F44D11E4B1E4D18787F
:1033A4001E491F4B0192002818BF19462846FFF7F3
:1033B40085FA07236B70019A3BE0C9033FF561AFBF
:1033C40061E700BFE0FE0020CC2A0120800001203C
:1033D40080000700CC3A0120C0FE00200C1E012012
:1033E4001C1E0120391E01203A1E01200200CC00BF
:1033F400C80002000200C800800000201993D574A0
:10340400DC1C0120CC1A0120141E0120351E0120D1
:103414003C1E01203B1E012000002020B41B006044
:10342400501B00602946104D01922846FFF746FACA
:10343400019A25F01F031544BFF34F8F4FF0E0218D
:10344400C1F8703F20339D42FAD8BFF34F8FBFF3CA
:103454006F8F05481146FFF78FFC44E50320FFF703
:10346400D7FC46F0E9F900BF000020202DE9F04721
:103474001F46831E022B01D9BDE8F087DFF84C906C
:1034840015460C463C2209EBC01806464FEAC01A02
:10349400002108F10400240436F05EFAB5FA85F23E
:1034A4000123520944EA427449F80A40C8F83870C2
:1034B400C8F80830002FDFD0034AB34011680B432B
:1034C4001360BDE8F08700BFD81A01200000002077
:1034D4002DE9F0470D46811E022901D9BDE8F08788
:1034E400C701DFF84C909246044640373C22002145
:1034F4001E4609EB07082D0408F1040036F02CFAE7
:10350400BAFA8AF2520945EA427249F807200122BE
:10351400C8F83860C8F80820002EDFD0034B1034F8
:103524001968A2400A431A60BDE8F087D81A01203E
:103534000000002012048160C36101F5405342F091
:10354400800210B40124426001F50052046001F5C8
:10355400805401F58041C46081615DF8044BC0E989
:1035640004237047831E0A46022B00D97047064B7A
:1035740000F110014FF0010C03EBC0100CFA01F143
:103584004030FFF799BB00BF00000020831E0A46AD
:10359400022B00D970470121024B814003EBC0107C
:1035A400FFF78ABB0000002040687047124A134BA3
:1035B400D2F8200220F07F40984210B584B002D2A5
:1035C40000EB800040000E4C01A90A22FFF710FA1C
:1035D40001A90023204611F8012B01333AB10A2B2B
:1035E40020F8022FF7D11623237004B010BD5B001E
:1035F400DBB2237004B010BD00441F4080969800D5
:10360400BCFA002000F0D8BA00F0CABA00F066BBD9
:1036140000F03CBB0846114600F02CBBF8B5144C36
:103624004FF0E025134E4FF4003204EB4024124FC8
:1036340006EB40160346C5F88C2121463A883046ED
:10364400FFF778FF3B882344BFF34F8FC5F85C4FE7
:103654002034A342FAD8BFF34F8FBFF36F8F0320F8
:103664003146FFF793FF4FF40033C5F80C31F8BD32
:103674008000202000FF0020281E0120244B2DE97B
:10368400F0411C884368C569C3F30E43E41A002C57
:1036940024DD204920480A780078D3B21F4E8242A4
:1036A4001F4807D010F8038036F81870C7F5007269
:1036B400944218D90133002226F81540082B194EDC
:1036C40088BF134626F8152098BFDAB2C554164BA6
:1036D4000A701A6814441C60BDE8F0812846BDE8ED
:1036E400F041FFF79BBF07EB4820104922462744CF
:1036F400084401EB4521FFF7E1F80B4A284626F878
:10370400187013682344BDE8F0411360FFF786BFC7
:10371400281E0120331E0120341E0120E81C012034
:10372400081D0120F81C0120E41C01208000202039
:103734001D4B1A78002A36D102F0FF031B4A127877
:103744008AB32DE9F0411A4D2A8852B3194EC2F5B5
:103754000068194F3278194C07EB421704EBC22466
:10376400424638462146FFF7E5FE04EB0802BFF364
:103774004F8F4FF0E023C3F8704F2034A242FAD8A1
:10378400BFF34F8FBFF36F8F04203946FFF7EAFE74
:1037940033780133DBB2032B88BF0023337000235B
:1037A4002B80BDE8F0817047381E01203A1E0120AD
:1037B4002A1E0120371E0120000001208010202035
:1037C4002DE9F04F85B0CDE90110002900F0BF804C
:1037D4000023604CDFF89881DFF898A15E4F0093D6
:1037E40001235E4A23705E4B1978B8F8003002EB6F
:1037F4004119002B40F0A7801E461D469B464846B3
:10380400FFF7D2FE10F0800000F08C80BFF34F8FE2
:103814009AF8003084F800B005B93E68002B7DD1D9
:103824003B689B1B782B00F287804E4B1B78002B48
:1038340074D000F09DFA0122B8F8003015462270C9
:10384400002BDCD0464AC3F5006011781A4600EB21
:10385400C120454DC9022844019D954217D20393C6
:10386400DDE901512A46FFF729F8039B4FF0404256
:103874005B1BA8F800303D4BC3F88420BFF34F8F87
:10388400009800232844237005B0BDE8F08F364B20
:10389400CD180299FFF712F800234FF4006229466D
:1038A4004846FFF747FEBFF34F8F05F1200205F5A9
:1038B4000063934234BF012340234FF0E02205EB21
:1038C4004313C2F8705F2035AB42FAD1BFF34F8F78
:1038D400BFF36F8F04204946FFF744FE204A137854
:1038E4000133DBB2032B84BF00231D4A1370B8F8E5
:1038F4000030019AD11A009A1A4401910092029A56
:103904001A4400230292194AA8F80030C2F88430FD
:10391400BFF34F8F237000297FF462AF009805B086
:10392400BDE8F08F4FF400620D4B8AF8000019785F
:103934001346A8F800208AE7012300988AF800308B
:1039440005B0BDE8F08F1A46C3F500607FE7019823
:10395400E5E700BF381E01200C1E012000000120F5
:10396400371E01203A1E01208010202000002E4026
:103974002A1E0120361E0120704700BF2D4B002156
:1039840080222D4870B51B7800242C4D8B422C4E80
:103994000CBF40234FF400732B80338035F0DCFFE1
:1039A400284A2146284B14704FF4807227481C8003
:1039B40035F0D2FF264A1021264B0220C2E90044EA
:1039C400C2E90244244AC3E900441470234AC3E907
:1039D4000244234B1C70234614602246FFF778FDF3
:1039E4002246318803201F4BFFF740FD2346012266
:1039F40029880420FFF76CFD20460134FFF70EFEF2
:103A0400082CF9D1184B00214A221848184C04609C
:103A1400C3F88410C3F88020D3F84821154942F034
:103A24008072C3F8482121B1134A137843F001038B
:103A3400137070BD3B1E0120000001202C1E0120CC
:103A4400281E0120371E01202A1E012000FF00200D
:103A5400E81C0120F81C0120331E0120E41C012075
:103A6400341E01205D1A000000002E40201E01209B
:103A7400111B0000000000003D1E01202DE9F04F45
:103A84004FF0E0234FF40032DFF8C8A083B0C3F84E
:103A94008C218B469AF8004000294FD08046E4B22E
:103AA4000027DFF8B490264BABEB070225491B78BF
:103AB400A34204F101043FD0092C234B404628BF04
:103AC40000241E5D39F816C00CEB462319441F4B25
:103AD40033F81650A5EB0C05AA421CD20CEB462C6D
:103AE40018491B4C61440192FEF7E8FE216839F83D
:103AF40016505846019AA1EB0B012A44394429F87F
:103B0400162021604FF0E0234FF40032C3F80C215B
:103B140003B0BDE8F08F2A462F44FEF7CFFE0C49D0
:103B2400E3B230460A68A844521B0A608AF800309F
:103B3400FFF774FDBB45B6D83846E3E70846E1E72E
:103B4400331E012080002020081D0120E81C0120D4
:103B5400E41C0120341E0120F81C01200B4B0C4AEC
:103B640012781978D3B28A420DD0013309480A4A2F
:103B7400092B0A4928BF0023C35C31F8131002EB58
:103B84004323585C70474FF0FF307047331E0120C9
:103B9400341E0120081D012080002020F81C012073
:103BA400044B10B51C680CB1204610BD00F0E0F8C1
:103BB400204610BDE41C01202DE9F84F144E154D8C
:103BC40033782A78934221D0DCB2DFF85090DFF8C2
:103BD40050B0DFF85080104F0134082C5FFA84FA9B
:103BE40001D90024A24619F80400DBF8003038F8A3
:103BF400102037F81010521A9B1ACBF80030FFF738
:103C04000DFD86F800A02B78A342E5D1BDE8F88F1E
:103C1400341E0120331E0120F81C0120081D012040
:103C2400E41C0120E81C012000B583B001210DF142
:103C34000700FFF723FF20B19DF8070003B05DF8EC
:103C440004FB4FF0FF30F9E7094B00B583B01B7854
:103C54008DF807003BB101210DF10700FFF7B0FD1E
:103C640003B05DF804FB03F0FF0003B05DF804FB50
:103C74003A1E0120044B1B7803F0FF020BB1FFF73F
:103C84009FBD1046704700BF3A1E01202DE9F04148
:103C94000024DFF8448001230D4D27460D4E88F89B
:103CA4000030337828462035A34204F1010405D0BE
:103CB400FFF77AFC030658BF07F50067042CF0D120
:103CC400BFF34F8F0023384688F80030BDE8F081F9
:103CD40000000120371E0120381E01202DE9F84381
:103CE4001D4B1B7813B11D4D2A880AB9BDE8F88312
:103CF4001B4EC2F500691B4933784A461A4C01EB46
:103D040043181A4F04EBC324012340463B70214659
:103D14000023FFF70FFC04EB0902BFF34F8F4FF0B2
:103D2400E023C3F8704F2034A242FAD8BFF34F8F78
:103D3400BFF36F8F04204146FFF714FC337801333F
:103D4400DBB2032B88BF0023337000232B80BFF327
:103D54004F8F3B70BDE8F8833A1E01202A1E0120D4
:103D6400371E01200000012080102020381E012071
:103D74002DE9F8432D4B1E7866B12D4F3B784BB996
:103D84000123F1073B7043D4B20726D400233B70D0
:103D9400730701D4BDE8F883264B1A68002AF9D0CA
:103DA400EFF30582002AF5D1EFF3108572B6186897
:103DB400002834D0204C2178002930D101222270EF
:103DC40042691A60002A2ED0916105B962B60025B5
:103DD4008368457798472570DCE7DFF8648098F8B6
:103DE4000030002BD2D00025DFF858902B4659F82C
:103DF40023400135236820461B69984710B1636945
:103E04009B68984798F80020EBB29A42EFD8BDE738
:103E1400FFF7C6FE0028B7D0AFF30080B4E7002D4B
:103E2400B8D162B6B6E7054B1A60CEE73D1E012055
:103E3400301E0120541001202E1E0120601001208C
:103E44002F1E01205411012070B5EFF3108272B6B9
:103E54000C4C206880B10C4E00254369236073B17B
:103E64009D6102B962B6836845779847EFF3108283
:103E740072B620680028F0D102B962B670BD336012
:103E8400EFE700BF5C10012058100120FFF7DCBFF2
:103E94000449054A4968054B1960136801331360E6
:103EA400704700BF001000E00C1E0120081E012016
:103EB40001207047B0F84630B0F848209BB292B267
:103EC400934202D2013AD01A7047416B01390A4435
:103ED400D01A7047016972B6B0F84A20B0F84C3075
:103EE40092B29BB29A423CBF806B1218C86AD31A32
:103EF40062B6C0F302601844704700BFB0F84A10BD
:103F04000246B0F84C3089B29BB2994210B40469AD
:103F140014D00133906B116B984298BF00239942DF
:103F240006D85B1A526AD05CC0B25DF8044B704785
:103F3400126A5DF8044BD05CC0B2704772B6B0F838
:103F44004A0080B2814201D062B6E2E7E36A13F02C
:103F5400E06F03D14FF0FF3062B6E6E7E36901207A
:103F64000024116AA2F84A00C3F30900DBB2A2F8E4
:103F74004C404B70F0E700BFB0F84A100246B0F86E
:103F84004C3089B29BB2994230B4046925D00133D4
:103F9400946B9C4216D9106B1FFA83FC984217D974
:103FA400106AC05CC0B2956DA2F84CC045B199428C
:103FB4001CD3CB1AD16B994202D3D36DC5F8883088
:103FC40030BC70474FF0000C106B63469842E7D842
:103FD400181A556A285CC0B2E5E7084672B6B2F80A
:103FE4004A1089B2884204D062B6D0E70C44E31A7E
:103FF400E0E7E36A13F0E06F03D14FF0FF3062B6FD
:10400400DEE7E069C0F30900F9E700BF90F8443047
:1040140043B110B50446FFF7ABFE94F84430002BCF
:10402400F9D110BD704700BF38B5D0E90453D3E9C6
:1040340003120968114228D090F84420044632B192
:10404400FFF796FE94F84430002BF9D16369002100
:104054000E4AA961207E03EB0010007D02EB0010E4
:10406400456805202860657E03EB051393F834301A
:1040740002EB0312A36D52681060A4F84A10A4F86E
:104084004C1013B1E26DC3F8842038BD6CDE0020FF
:1040940007EE901A9FED9A7A0421B6EE005AF8EED4
:1040A400677A9FED986A41F6FF7CC7EE275A2DE99F
:1040B400F0478E460569012407EE901AF8EEE77A78
:1040C40085EEA77A77EE057AFDEEE77A17EE903A59
:1040D4006345A8BF6346012BB8BF012307EE903A9E
:1040E400F8EEE76A76EEC76AC6EE877AF5EEC07A2E
:1040F400F1EE10FA48BFF1EE677AF4EEC67AF1EE0B
:1041040010FA03D8B0EE676A8E461C4601312129A5
:10411400D2D10021436902F40076A0F84A10B3F822
:104124005AC08E42A0F84C10B3F85860A0F846105C
:10413400A0F8481080F84410816BDF68A1EB0606F4
:10414400A1EB0C01C0E90F6139681E6941EA06015F
:10415400396014BF01210021817640F0AC80017EDA
:10416400694E03EB0118DFF8C09198F81470D8F881
:104174001CA006EB0717B968C1F800907968D8F855
:1041840018700F60BAF1000F03D0D8F82010CAF8E5
:104194000010477ED92103EB071898F834C006EBCA
:1041A4000C1CDCF808703960DCF80410D8F838709E
:1041B4000F60417E03EB0111CF6B0FB1096C3960C5
:1041C4000EF1FF31BEF1080F4FEA0161CCBF4FF091
:1041D400000E4FF0010E01F0F85144EA4E44214321
:1041E4005C682961597801F110030021E9604749AD
:1041F40041F8234041694FF0010E454C02F0030C95
:104204004F7891F85610434B39554FF002174469D3
:10421400617803EB511301F01F019B000EFA01F1C9
:104224001960EF62AB6A43F08803AB6253073ED474
:104234004CF4701302F00F01042908BF43F08043CB
:1042440097062ED5817E43F0805300293AD1160774
:10425400AB6103D52B6943F000532B616B69D10625
:1042640023F0805348BF43F080536B61D30503D5DB
:104274002B6943F400532B61A36883B1264E347831
:10428400002C3AD0611E254DC9B22B1F05EB8101CC
:1042940001E0994225D053F8042F9042F9D1BDE8AA
:1042A400F087817E0029D2D043F0A003CFE71C4BD6
:1042B4004CEA0303BEE7477E4FF2D901124E03EBEB
:1042C40007186AE7417E43F0A00304EB011191F85B
:1042D400341006EB0116B668316821F440413160B0
:1042E400B5E7631CDBB20F4A3370137845F824003A
:1042F40043F002031370BDE8F0870123074DF2E792
:10430400001BB74BEC78AD606CDE002000FC002095
:1043140000E400E0403800382F1E01205411012031
:1043240010003C003D1E012038F00100EFF3138023
:10433400B8B9EFF310834BB9EFF305823AB94FF4F0
:104344008073EFF3118050B1984208D270470F2A5E
:10435400F7D9054B9B5CEFF311800028F4D1184684
:1043640070474FF0FF30F1E7F0E300E0036D2DE913
:10437400F04104460F46066913B1426DC3F8842028
:10438400A37E2BB172B6B36943F00053B36162B636
:10439400B4F84650636BADB20135AB424CD84FF024
:1043A40000084546B4F848309BB29D4219D028E035
:1043B40073691B0210D5B4F84830626B9BB20133A9
:1043C4009A4236D99AB2E16A99422DD9E169CB5C15
:1043D400DBB2F361A4F84820B4F848309BB2AB4296
:1043E4000FD1FFF7A3FF6369B3F856308342DFDAD6
:1043F400FF28F1DDFFF7BCFCB4F848309BB2AB42B8
:10440400EFD0E36AAB421AD9FFB2E3695F5572B6E3
:10441400012084F84400A4F84680B36943F40003FF
:10442400B36162B6BDE8F0815B1AA16ACB5CDBB212
:10443400CFE700221346C6E71FFA85F8B2E7ED1A64
:10444400FFB2A36A5F55E2E7FFF790BF02695369C1
:1044540013F4401F70B543D0D36A13F0E06FC3F375
:10446400026E3AD0B0F84A50B0F84C60ADB2B6B271
:1044740007E0016A01F803C00EF1FF3313F0FF0EE9
:104484001DD0D1696B1C846BB0F84CC0C1F3090119
:104494009C4298BF00231FFA8CFC9C45ECD0046B13
:1044A4005FFA81FC1D469C42A3EB0404E1D8436AF5
:1044B40003F804C00EF1FF3313F0FF0EE1D1ABB2E9
:1044C400A0F84A30836D43B1B54254D3AD1B016C9F
:1044D400A94202D8C16DC3F884105369D90245D4E6
:1044E4009669330228D553691D0225D5B0F8465084
:1044F400B0F84830ADB29BB206E0C169C95CC9B23C
:10450400D161D16A4C0512D4AB4238D0446B01332B
:10451400C16A9C4298BF00239942A3EB0104ECD8E2
:10452400816A095DC9B2D161D16A4C05ECD599B2F1
:10453400AB42A0F8481025D0710216D553695B022E
:1045440013D50021036D80F8441013B1416DC3F8F5
:104554008810837E2BB172B6936923F00053936164
:1045640062B6936923F48003936170BD536943F485
:1045740080135361B4E7816B891B0D44A7E79BB299
:10458400A0F84830936923F400039361936943F4DA
:1045940080039361D0E700BF00230F2248F2B82CB8
:1045A400194610B54FF470444FF4806EA0F88C4156
:1045B4004FF46044A0F88E210A46A0F89031B0F878
:1045C40088319BB243F0F003A0F8883101EB41033A
:1045D400013100EB431304299C80A3F806E05A84BC
:1045E4001A865A805A81A3F80EC05A82DA825A83F4
:1045F400DA83EBD1B0F888319BB243F00F03A0F813
:104604008831B0F888319BB243F47063A0F88831E4
:1046140010BD00BF374B384A996F384841F47F01C9
:1046240070B5996741F20106D3F8801045F6C0557C
:1046340043F226040A43C3F88020FFF7ADFF00F5D8
:104644008040FFF7A9FF00F58040FFF7A5FF00F5C4
:104654008040FFF7A1FF0022A0F503104FF00F0EDA
:10466400114600EB42134FEA421C01329981042A9D
:104674005981A3F80EE09E82DD8020F80C10198287
:104684009C81EED100221E484FF00F0E41F201062C
:10469400114645F6C05543F2260400EB42134FEA97
:1046A400421C01329981042A5981A3F80EE09E82AA
:1046B400DD8020F80C1019829C81EED10022114873
:1046C4000F2641F20105114645F6C05443F2260E69
:1046D40000EB42134FEA421C01329981042A5981AA
:1046E400DE819D82DC8020F80C101982A3F80CE096
:1046F400EED170BD00C00F40000003FC00C03D407F
:1047040000001E4000401E40074A506A936A194642
:104714008446506A936A9942F9D18445F7D1DB0BF8
:1047240043EA4040704700BF00400D40034608463E
:10473400194633F029B900BF2DE9F04FD04FD14DC0
:104744003968DFF89093D04B8E68DFF84C83DFF83C
:1047540088B3002483B00122C5E90094C5E902446A
:10476400C5E90444AC6105F11C001A7001F094F829
:104774003B682E624FF0FF3A5B68C8F80090C8E9C6
:104784000144C8E90344C8E90544C5F824A008F174
:104794001C00C5F800B0019301F07EF8019BBB4EEC
:1047A400C8F820303B68C6F80090C6E90144DB68CD
:1047B400C8F824A0C6E90344C6E9054406F11C0070
:1047C400C8F800B0DFF8FC92019301F065F8019B92
:1047D400DFF80883C6F800B0C6E9083AA9F1040670
:1047E400484608F1140A12F045FBC6E91F44C6E91D
:1047F400214429467467A6F8784049F8048C484651
:10480400C6F804A012F0D0FAA14C204612F032FBF4
:10481400A04B44F8083C143323600023C4E91E333E
:10482400C4E920332367A4F8743044F8043C2046D8
:104834009949083C12F0B8FA984DA5F104092846A4
:1048440012F018FB0023C9E91F33C9E921338F494A
:1048540045F8048C2846C9F804A0C9F87430A9F8AE
:10486400783012F0A1FADFF868B2ABF104055846CB
:1048740012F000FB0023C5E91F33C5E92133834946
:104884004BF8048CC5F804A058466B67A5F878303B
:1048940012F08AFAD9F81030814DDFF844B2A667D5
:1048A40043F40053C9F810303B68C9F8746000241D
:1048B4009E68AC61C5E900B4C5E90244C5E9044495
:1048C40005F11C0000F0E8FFDFF8E8813B682E6288
:1048D4004FF0FF39DFF80CA25B68C5F800A0C5F8FB
:1048E4002490C8F800B0C8E90144C8E90344C8E901
:1048F400054408F11C00019300F0CEFF019B694EB2
:10490400C8F820303B68C6F800B0674FD3F80CB045
:10491400C8F82490C8F800A0C6E90144C6E90344D5
:10492400C6E9054406F11C0000F0B6FFDFF8B881C3
:10493400C6F800A0C6E908B9384612F09BFA294621
:1049440008F114093D1FC5E91D44C5E92044C5E922
:10495400224447F8048C384685F87C40C5F8049016
:1049640012F072FA514C204612F084FA504B44F87B
:10497400083CA4F108061433B3600023C6E91E33CF
:10498400C6E92133C6E923334A4986F880302046F4
:10499400736012F059FA484F3C1F384612F06AFA15
:1049A4000023C4E91D33C4E92033C4E922333D495B
:1049B40047F8048C3846C4F8049084F87C3012F02C
:1049C40043FADFF808A1AAF10407504612F052FA9C
:1049D4000023C7E91D33C7E92033C7E9223331492E
:1049E4004AF8048CC7F80490504687F87C3012F0DB
:1049F4002BFA324922690B68B56742F4005201333D
:104A0400226165670B6003B0BDE8F08F2C4B7360C7
:104A14002C4812F06BFA26F0C9FE2B4B7B602B4816
:104A240012F064FA26F0C2FE274B6360224812F0AB
:104A34005DFA26F0BBFE244BB3601C4812F056FA14
:104A440026F0B4FE204B6B60174812F04FFA26F0A4
:104A5400ADFE1B4B6B601E4812F048FA26F0A6FE12
:104A6400174BC9F804300D4812F040FA26F09EFEA8
:104A7400134BA360064812F039FA26F097FE00BFE4
:104A8400ACF20020B4100120D2FA00208C100120D6
:104A94001C1301207851002064100120A813012068
:104AA4002C110120041101200017012050150120B0
:104AB40030530020DC100120E0150120E012012019
:104AC400D0590020C0140120E059002070160120A4
:104AD4003414012090530020144A0020A0510020D7
:104AE400D0530020544A002058530020074A13682A
:104AF400591C116003B1704700B583B00190FFF7F2
:104B04001BFE019803B05DF804FB00BFE012012016
:104B1400114A1368591E022B10B50446116001D0C6
:104B2400204610BD0D481BF0D9FF0D481BF0D6FFE1
:104B34000C481BF0D3FF0C481CF00CF80B481CF07D
:104B440009F80B481CF006F8204610BD26F0B6FF05
:104B540026F0F2FFE4E700BFE0120120BC140120BC
:104B6400A413012030140120FC160120DC150120BF
:104B74006C160120704700BF10B5044626F00CFDEA
:104B8400204610BD044A0B6812680360934202D0A9
:104B94001A6801321A607047601201200160704780
:104BA40010B5054C206800B110BD024603492046EB
:104BB40028F05AF9206810BD681201202C28002022
:104BC400004870472C28002070B505464068E8B1BD
:104BD400AB68CBB1304E002403E0AB680134A34290
:104BE40011D950F82420002AF8D05368591E012BFB
:104BF4005160F2D113685B68B342104637D126F096
:104C0400CBFC6868E9E708B126F0CAFCE868E8B1BB
:104C1400AB68CBB1204E002403E0AB680134A3425F
:104C240011D950F82420002AF8D05368591E012BBA
:104C34005160F2D113685B68B342104619D126F073
:104C4400ABFCE868E9E708B126F0AAFC2B6963B17C
:104C54000024185910B126F0A3FC2B690434182C35
:104C6400F7D113B1184626F09BFC284670BD98472F
:104C7400C7E79847E5E726F021FF26F05DFFC0E788
:104C840026F01CFF26F058FFDBE7013102D126F0A5
:104C9400A3FEFAE726F08AFD592F000038B50A4B27
:104CA40005681B689D42044604D02B685A1E012BDC
:104CB4002A6001D0204638BD2846FFF785FF2846E4
:104CC40026F06AFC204638BD601201200F4B1A689A
:104CD4000B68934270B50E46044602D01868013042
:104CE40018602568AA4204D02A68501E012A286048
:104CF40002D02360204670BD2846FFF765FF284692
:104D040026F04AFC33682360204670BD60120120FF
:104D1400002A00F0E5802DE9F04F0C6883B00546C9
:104D2400164624B9A94B1C6801341C600C60AB689E
:104D3400671E013BBB425CD204F103086FF0604381
:104D4400984534BF4FEA880A4FF0FF3A5046D5F8E9
:104D540004B027F061FB8146A86868B16B6803EB77
:104D6400800CA9F10402043BACF1040C53F8041FB9
:104D740042F8041F9C45F9D1804507D9A8EB0002ED
:104D8400920009EB8000002134F0E6FD5046D5F88E
:104D94000CA027F041FBD5F808C00346BCF1000F76
:104DA4000CD0EA6802EB8C0E011F043AAEF1040E3B
:104DB40052F8040F41F8040F7245F9D1E04509D9BE
:104DC400A8EB0C0203EB8C0092000021019334F059
:104DD400C3FD019BEB60C5E90198BBF1000F02D054
:104DE400584626F0DDFBBAF1000F02D0504626F0FB
:104DF400D7FBD5F80480736858F827C00133736073
:104E0400BCF1000F43D0724A1168002938D06F48B2
:104E14000EE0D2F804E0DEF8003023B90368013371
:104E24000360CEF800309C4269D052F8081F39B3B1
:104E34000B681BB90368013303600B609C42E8D123
:104E440051680B6823B9614A1368013313600B601E
:104E54005C1E58F824309BB130460DF0DBF98146D6
:104E640058F82400D9F804300133C9F804304368F1
:104E74005A1E012B426068D048F8249058F827C085
:104E8400DCF804305A1E012BCCF804202DD0AA687B
:104E940048F827600AB30024EB68DFF83881274616
:104EA40004E0AA680F600134A24216D953F8240022
:104EB400A60003EB84010028F5D0426802F1FF3C10
:104EC400012AC0F804C0ECD103685B68434508D1EB
:104ED40026F062FBEB689919E3E703B0BDE8F08FB5
:104EE40070479847EB689919DBE7DCF80030394ADA
:104EF4005B689342604626D126F04EFBC7E70B68F9
:104F040023B9324A1368013313600B605C1E58F8EE
:104F14002430002BB4D0304604F0B8FE814658F853
:104F24002400D9F804300133C9F8043043685A1E08
:104F3400012B4260A0D10368264A5B6893420BD1DF
:104F440026F02AFB98E79847A1E70368214A5B68A3
:104F54009342F5D098478FE798478DE726F0AEFD4A
:104F640026F0EAFDBEE726F0A9FD26F0E5FD8EE772
:104F740026F0A4FD484626F013FB27F0EFF926F0AF
:104F84009DFD26F0D9FD77E726F098FD26F0D4FDA7
:104F940072E7013115D126F01FFD013105D126F04C
:104FA4001BFD013103D126F017FD26F0FFFB26F08F
:104FB400FDFB26F0C1FD26F0F9FB013103D126F0FB
:104FC4000BFD26F0F3FB26F0F1FB00BF6412012079
:104FD40070270020592F00002DE9F041374C236839
:104FE400BFF35B8FDB0707460E4615464AD5344BA5
:104FF4001C68002C3AD033489C460BE023B9016866
:10500400013101600B461160013B9D4243D05CF8C5
:10501400084F5CB3236823B9026801320260134667
:105024002260013BDCF804209D421368E6D1002B8A
:105034003BD0013BFA6852F8251051B1A6B1336850
:10504400214A5B689342304635D1BDE8F04126F0F1
:10505400A3BA7168481C7060581C42F8256003D0DC
:105064000231716042F82360BDE8F081FB6853F8B7
:105074002520002AE2D172680132726043F825606B
:10508400BDE8F0812046FDF7D9FD0028AFD02046C9
:10509400FDF7DAFDABE7226822B90A4B1A68013240
:1050A4001A6022602B46551EC4E706490B6801337B
:1050B4000B601360BDE7BDE8F04118472C010120E7
:1050C4007027002064120120592F000003682BB9B7
:1050D40003490A6801320A6013460260581E704789
:1050E400641201202DE9F04FC54C0160302389B0D2
:1050F40006468360C0220021204634F02DFCC14BBB
:10510400746000211846C02234F026FCBE4DBF4A0C
:105114000024C6E90302C2E90054C2E90244C2E918
:105124000444FFF74DFD02882A80B9480123224632
:10513400214605F08FFFB64AB6493046FFF7E8FD31
:10514400B548012127F030FFB34AB4493046FFF790
:10515400DFFDB34CB348B44A846001230021C4E9A1
:1051640000234360B14B2174C4E90211C4E9051161
:10517400C4E90711A18484F86410036001F07EF887
:10518400A84AAB493046FFF7C3FDAA4AAA4B1360AD
:10519400012151603046A949FFF7BAFDA84AA94B3D
:1051A4001360012151603046A749FFF7B1FDA74CB8
:1051B400A74B0122C4E90032FFF7F2FCA060A54925
:1051C40022463046FFF7A4FDDFF840A3A24AA348D5
:1051D4000123CAE90023C0E9013A0022A04BAAF83E
:1051E4001020CAE90222CAE90522CAE90722CAE94B
:1051F4000922CAE90B228AF81220CAF834208AF854
:1052040043200360114600F0CDFB944A9549304693
:10521400FFF77EFDDFF8F89293480123C0E90139D6
:10522400C9F80430914BC9F800300022904BA9F81A
:105234001020C9E90222C9E90522C9E90722C9E9FE
:105244000922C9E90B2289F81220C9F8342089F807
:1052540043200360114600F059FB834A85493046D8
:10526400FFF756FD844A854B13600123844953603C
:105274003046FFF74DFD834A834B13600123834976
:1052840053603046FFF744FD814D82492960002375
:105294000122C5E90123C5E90333C5E90533C5E99D
:1052A4000733C5E90933C5E90B33C5E90D33C5E94E
:1052B4000F33C5E91133C5E91333C5E91533C5E91E
:1052C4001733C5E91933C5E91B33C5E91D33EB674A
:1052D4007148C5E920332946C5E92233C5E9243399
:1052E400C5E92633C5E92833C5E92A33C5E92C3392
:1052F400C5E92E33C5F8C03085F8C43012F0DEFBA2
:10530400654A66493046FFF703FD654A654B1360FD
:105314000123654953603046FFF7FAFC634A644B46
:1053240013600123634953603046FFF7F1FC624880
:1053340001210AF057FD604A60493046FFF7E8FC56
:105344005F48012105F056FE5D4A5E493046FFF78D
:10535400DFFC5D48012127F03FFE5B4A5B49304694
:10536400FFF7D6FCDFF8ACB159480123CBF8043081
:105374004360584BCBF80030574BC0F808B00021BD
:105384000360CBE90211CBE90511CBE90711CBE9A5
:1053940009118BF810108BF8241100F0FBFF4C4A14
:1053A4004E493046FFF7B4FC4D4A4E4B136001237F
:1053B4004D4953603046FFF7ABFC4C4A4C4B1360ED
:1053C40001234C4953603046FFF7A2FC4A4C4B4B37
:1053D400236001236360FFF7E3FBA0604849224692
:1053E4003046FFF795FCDFF8308146480123C8F8C2
:1053F40004304360444BC8F8003000228EE000BF04
:10540400740F0120840E01205C0701206C0E012022
:105414006807012058120120440F0120C012012006
:10542400D4020120DC010120105400204C50002043
:105434009012012034100120C8570020D0120120FE
:105444004410012040580020D81201205C0F012094
:10545400DC4F0020801201205054002084020120DF
:105464000C4F002070120120900201206054002093
:10547400404F00207412012024020120EC5000202F
:10548400A0120120340201201C510020A812012086
:10549400640401203054002044020120A0110120A2
:1054A400F4010120945000209812012004020120EC
:1054B40094590020FC120120BC0101208812012013
:1054C400880901205C120120500F0120C412012020
:1054D400E801012020540020705000209412012083
:1054E4003C10012004580020D41201204C1001204B
:1054F40070580020DC120120680F0120F84F0020B2
:10550400841201209C02012070540020F405012023
:10551400380601203C0301207C060120AC4BC0F876
:10552400088003601146C8E90222C8E90522C8E9D7
:105534000722C8E90922C8E90B22C8E90D2288F824
:105544001020C8F83C2088F86C2000F027FBA14A02
:10555400A1493046FFF7DCFBA04FA14801237B6043
:105564004360A04B3B6000229F4B87600360114661
:10557400C7E90222C7E90522C7E90722C7E90922C8
:10558400C7E90B22C7E90D223A74FA6387F86C2045
:1055940000F0B8FA924A95493046FFF7B9FB944AAD
:1055A400944B13600123944953603046FFF7B0FBDA
:1055B400924A934B13600123924953603046FFF79C
:1055C400A7FB914C9149216000230122C4E90123E6
:1055D400C4E90333C4E90533C4E90733C4E909332F
:1055E400C4E90B33C4E90D33C4E90F33C4E91133FF
:1055F400C4E91333C4E91533C4E91733C4E91933CF
:10560400C4E91B33C4E91D33E3678148C4E920338B
:105614002146C4E92233C4E92433C4E92633C4E966
:105624002833C4E92A33C4E92C33C4E92E33C4F83B
:10563400C03084F8C4301CF02BFE754A75493046DE
:10564400FFF766FB744A754B13600123744953607A
:105654003046FFF75DFB734A734B136001237349B4
:1056640053603046FFF754FB7148012111F082F872
:105674006F4A70493046FFF74BFB6F4A6F4B13601C
:1056840001236F4953603046FFF742FB6D4A6E4B6E
:10569400136001236D4953603046FFF739FB6C4AB0
:1056A4006C4B136001236C4953603046FFF730FBA9
:1056B4006A4A6B4B136001236A4953603046FFF713
:1056C40027FB694A02A93046CDE9022ACDE9049BA9
:1056D400CDE9068701F064FDF36864480193FFF7A0
:1056E400F5FC019B604A43F82020F368604801936D
:1056F400FFF7ECFC019B43F820A05E48D6F80CA011
:10570400FFF7E4FC4AF820905B48D6F80C90FFF7CA
:10571400DDFC49F820505948F568FFF7D7FC45F8F7
:1057240020B02D48F568FFF7D1FC45F820802F48BC
:10573400F568FFF7CBFC45F820703648F568FFF7AD
:10574400C5FC45F82040304609B0BDE8F08F04465A
:1057540001313AD1204626F03FF90D46044620484F
:10576400FFF708FA2946F3E70D4604464448FFF7D5
:1057740001FA2946ECE70D4604464248FFF7FAF9D8
:105784002946E5E70D4604463F48FFF7F3F9294665
:10579400DEE70D4604463D48FFF7ECF92946D7E716
:1057A4000D4604463A48FFF7E5F92946D0E70D4689
:1057B40004463848FFF7DEF92946C9E70D46044692
:1057C4000448FFF7D7F92946C2E725F0EFFF00BFE9
:1057D400744F00209C02012078120120EC06012065
:1057E400A802012080540020A84F00207C12012030
:1057F4002C02012004510020A41201203C020120AB
:1058040034510020AC1201202C050120405400200A
:1058140058020120A4110120FC010120C0500020E5
:105824009C1201200C020120A85900200013012021
:10583400CC0101208C120120140201200C570020FD
:10584400BC1201201C020120B4560020B412012015
:10585400B4020120E0560020B8120120BC0201204D
:1058640088560020B0120120D40201209012012099
:105874007012012074120120A01101209412012041
:1058840090020120840201205C0F0120DC01012030
:10589400680F0120E8010120F8B5174E3368002293
:1058A40004460260D3B1154D2A6822609A420AD098
:1058B400134E3368BFF35B8FDB0706D52B68236079
:1058C4001A6801321A602046F8BD3046FDF7B6F971
:1058D4000028F3D03046FDF7B7F9EFE7094F074D3D
:1058E40002213846FFF7FEFB0748376039462F6030
:1058F400FFF754F93368D7E7601201206C120120D6
:105904002801012070020120680E012010B5044610
:10591400806830B32E234374A3681E492C229A74E2
:105924001D4AA368106818630022C3E90212C3E980
:105934000512C3E90712C3E90912DA62174AA36818
:105944001268586302F10A0C531EC2F10100A268E6
:10595400C1180A4413F8011F82F838106345F6D1C0
:1059640010BD442026F03AFD0D4AA0600023C0E992
:105974000023C0E90233C0E90533C0E90733C0E9B5
:105984000933C0E90B3303828374436380F84330E3
:10599400C0E700BF841F0020AC22002084EC00205C
:1059A4006054002010B50446806830B32E2343743D
:1059B400A3681E492C229A741D4AA36810681863B0
:1059C4000022C3E90212C3E90512C3E90712C3E9BD
:1059D4000912DA62174AA3681268586302F10A0CC2
:1059E400531EC2F10100A268C1180A4413F8011F32
:1059F40082F838106345F6D110BD442026F0EEFC41
:105A04000D4AA0600023C0E90023C0E90233C0E9C5
:105A14000533C0E90733C0E90933C0E90B33038216
:105A24008374436380F84330C0E700BF841F0020C1
:105A3400AC22002084EC00205054002010B5044611
:105A44008068084B236010B103685B689847204660
:105A5400FFF790F8204610BD2046FFF78BF825F09D
:105A6400A5FE00BF404F002010B5044680680B4BD4
:105A7400236010B103685B6898472046FFF77AF803
:105A8400204625F089FD204610BD2046FFF772F818
:105A9400204625F081FD25F089FEF9E7404F0020DE
:105AA40010B504468068084B236010B103685B6836
:105AB40098472046FFF75EF8204610BD2046FFF7C2
:105AC40059F825F073FE00BF0C4F002010B50446B2
:105AD40080680B4B236010B103685B6898472046CD
:105AE400FFF748F8204625F057FD204610BD204614
:105AF400FFF740F8204625F04FFD25F057FEF9E763
:105B04000C4F002038B58368044613B31E491F4D5B
:105B140008681F4998630022C3E90712C3E9091200
:105B2400C3E90B129D60DA605A632E25A2685D6199
:105B340018492C259D61D0630968A2684B1E3C322C
:105B440001F10A0013F8011F42F8041F8342F9D13E
:105B540038BD702026F042FC0F49A0600022C0E945
:105B64000012C0E90222C0E90522C0E90722C0E907
:105B74000922C0E90B22C0E90D2203460274C26364
:105B840080F86C20C2E700BFAC220020841F0020F4
:105B94007468002084EC00208054002038B58368A9
:105BA400044613B31E491F4D08681F499863002219
:105BB400C3E90712C3E90912C3E90B129D60DA6055
:105BC4005A632E25A2685D6118492C259D61D06316
:105BD4000968A2684B1E3C3201F10A0013F8011F48
:105BE40042F8041F8342F9D138BD702026F0F6FB39
:105BF4000F49A0600022C0E90012C0E90222C0E9F6
:105C04000522C0E90722C0E90922C0E90B22C0E944
:105C14000D2203460274C26380F86C20C2E700BF01
:105C2400AC220020841F00207468002084EC002033
:105C34007054002010B504468068084B236010B1EE
:105C440003685B6898472046FEF794FF204610BD22
:105C54002046FEF78FFF25F0A9FD00BFA84F0020C6
:105C640010B5044680680B4B236010B103685B6871
:105C740098472046FEF77EFF204625F08DFC2046FF
:105C840010BD2046FEF776FF204625F085FC25F062
:105C94008DFDF9E7A84F002010B504468068084B35
:105CA400236010B103685B6898472046FEF762FFE3
:105CB400204610BD2046FEF75DFF25F077FD00BFAE
:105CC400744F002010B5044680680B4B236010B15C
:105CD40003685B6898472046FEF74CFF204625F092
:105CE4005BFC204610BD2046FEF744FF204625F00D
:105CF40053FC25F05BFDF9E7744F002090F8433026
:105D04000C4A10B5044602607BB1806808B125F0E6
:105D140047FC606908B125F043FCE06908B125F04F
:105D24003FFC606A08B125F03BFC2046FEF722FFE9
:105D3400204610BD6054002010B50446FFF7DEFF76
:105D4400204625F029FC204610BD204625F024FCE1
:105D540025F02CFD90F843300C4A10B5044602603F
:105D64007BB1806808B125F01BFC606908B125F09F
:105D740017FCE06908B125F013FC606A08B125F04E
:105D84000FFC2046FEF7F6FE204610BD50540020BE
:105D940010B50446FFF7DEFF204625F0FDFB204644
:105DA40010BD204625F0F8FB25F000FD90F86C307E
:105DB4000C4A10B5044602607BB1806808B125F036
:105DC400EFFBE06908B125F0EBFB606A08B125F050
:105DD400E7FBE06A08B125F0E3FB2046FEF7CAFEC4
:105DE400204610BD8054002010B50446FFF7DEFFA6
:105DF400204625F0D1FB204610BD204625F0CCFBE3
:105E040025F0D4FC90F86C300C4A10B504460260BE
:105E14007BB1806808B125F0C3FBE06908B125F0C7
:105E2400BFFB606A08B125F0BBFBE06A08B125F04E
:105E3400B7FB2046FEF79EFE204610BD705400209E
:105E440010B50446FFF7DEFF204625F0A5FB2046EB
:105E540010BD204625F0A0FB25F0A8FC10B5044693
:105E6400806830B32E234374A3681E492C229A748D
:105E74001D4AA368106818630022C3E90212C3E92B
:105E84000512C3E90712C3E90912DA62174AA368C3
:105E94001268586302F10A0C531EC2F10100A26891
:105EA400C1180A4413F8011F82F838106345F6D16B
:105EB40010BD442026F092FA0D4AA0600023C0E9E8
:105EC4000023C0E90233C0E90533C0E90733C0E960
:105ED4000933C0E90B3303828374436380F843308E
:105EE400C0E700BF841F0020AC22002084EC002007
:105EF4006054002010B50446806830B32E234374E8
:105F0400A3681E492C229A741D4AA368106818635A
:105F14000022C3E90212C3E90512C3E90712C3E967
:105F24000912DA62174AA3681268586302F10A0C6C
:105F3400531EC2F10100A268C1180A4413F8011FDC
:105F440082F838106345F6D110BD442026F046FA95
:105F54000D4AA0600023C0E90023C0E90233C0E970
:105F64000533C0E90733C0E90933C0E90B330382C1
:105F74008374436380F84330C0E700BF841F00206C
:105F8400AC22002084EC00205054002038B58568F1
:105F9400114B0360044655B12B68104A5B68934269
:105FA400284609D1FFF7AAFE284625F0F5FA20462F
:105FB400FEF7E0FD204638BD98472046FEF7DAFD9F
:105FC400204638BD02E0284625F0E6FA2046FEF7D2
:105FD400D1FD25F0EBFB00BFF85100201941000072
:105FE40010B50446FFF7D2FF204625F0D5FA204627
:105FF40010BD204625F0D0FA25F0D8FB38B58568C9
:10600400114B0360044655B12B68104A5B689342F8
:10601400284609D1FFF79EFE284625F0BDFA204602
:10602400FEF7A8FD204638BD98472046FEF7A2FD9E
:10603400204638BD02E0284625F0AEFA2046FEF799
:1060440099FD25F0B3FB00BFC4510020714100004D
:1060540010B50446FFF7D2FF204625F09DFA2046EE
:1060640010BD204625F098FA25F0A0FB38B58368CA
:10607400044613B31E491F4D08681F499863002244
:10608400C3E90712C3E90912C3E90B129D60DA6080
:106094005A632E25A2685D6118492C259D61D06341
:1060A4000968A2684B1E3C3201F10A0013F8011F73
:1060B40042F8041F8342F9D138BD702026F08EF9CE
:1060C4000F49A0600022C0E90012C0E90222C0E921
:1060D4000522C0E90722C0E90922C0E90B22C0E970
:1060E4000D2203460274C26380F86C20C2E700BF2D
:1060F400AC220020841F00207468002084EC00205F
:106104008054002038B58368044613B31E491F4DDC
:1061140008681F4998630022C3E90712C3E90912FA
:10612400C3E90B129D60DA605A632E25A2685D6193
:1061340018492C259D61D0630968A2684B1E3C3226
:1061440001F10A0013F8011F42F8041F8342F9D138
:1061540038BD702026F042F90F49A0600022C0E942
:106164000012C0E90222C0E90522C0E90722C0E901
:106174000922C0E90B22C0E90D2203460274C2635E
:1061840080F86C20C2E700BFAC220020841F0020EE
:106194007468002084EC00207054002038B58568B1
:1061A400114B0360044655B12B68104A5B68934257
:1061B400284609D1FFF7FAFD284625F0EDF92046D7
:1061C400FEF7D8FC204638BD98472046FEF7D2FC9F
:1061D400204638BD02E0284625F0DEF92046FEF7C9
:1061E400C9FC25F0E3FA00BF60520020C941000059
:1061F40010B50446FFF7D2FF204625F0CDF920461E
:1062040010BD204625F0C8F925F0D0FA38B58568C8
:10621400114B0360044655B12B68104A5B689342E6
:10622400284609D1FFF7EEFD284625F0B5F92046AA
:10623400FEF7A0FC204638BD98472046FEF79AFC9E
:10624400204638BD02E0284625F0A6F92046FEF790
:1062540091FC25F0ABFA00BF2C5200202142000033
:1062640010B50446FFF7D2FF204625F095F92046E5
:1062740010BD204625F090F925F098FA38B504466B
:106284008068002835D0244B244D2E2280F8242009
:10629400A1681A680023C0E9025303742C2381F80F
:1062A400253002F1230C531EC2F10100A268C1186B
:1062B4000A4413F8011F82F826106345F6D1184BDF
:1062C4001868431E00F1190CC0F10100A268C1183E
:1062D4000A4413F8011F82F84A106345F6D1A368F3
:1062E4001049114C04200522C3E90540C3E90712F3
:1062F40038BD682026F072F80C4AA0600023C0E97B
:106304000023C0E90233C0E90533C0E9073303744D
:10631400838480F86430B6E780EC0020841F00207A
:106324007CEC00206C2800206428002010540020FD
:1063340010B504468068084B236010B103685B689D
:1063440098472046FEF716FC204610BD2046FEF76F
:1063540011FC25F02BFA00BF4C50002010B5044668
:1063640080680B4B236010B103685B689847204634
:10637400FEF700FC204625F00FF9204610BD20460C
:10638400FEF7F8FB204625F007F925F00FFAF9E7A8
:106394004C50002038B584685CB3214B21481968FF
:1063A400A06000232246E36023742E202C23606225
:1063B40001F1230C42F8283F4B1E13F8011F42F849
:1063C400041F6345F9D1184B196804F1B8024B1E38
:1063D40001F1190C13F8011F42F8041F6345F9D1A8
:1063E4001248134A04210523C4E90501C4E907231B
:1063F40038BD05464FF4947025F0F0FF0D4AA860AF
:106404000023C0E90023C0E90233C0E90533C0E931
:106414000733C0E909330446037480F82431BCE728
:1064240080EC0020841F00207CEC002074280020D5
:10643400882800202054002010B504468068084BAA
:10644400236010B103685B6898472046FEF792FB0F
:10645400204610BD2046FEF78DFB25F0A7F900BFAE
:106464007050002010B5044680680B4B236010B1B7
:1064740003685B6898472046FEF77CFB204625F0BE
:106484008BF8204610BD2046FEF774FB204625F00D
:1064940083F825F08BF9F9E77050002090F8643008
:1064A4000A4A10B5044602605BB1806808B125F061
:1064B40077F8606908B125F073F8E06908B125F050
:1064C4006FF82046FEF756FB204610BD10540020FE
:1064D40010B50446FFF7E2FF204625F05DF820469C
:1064E40010BD204625F058F825F060F990F82431C5
:1064F4000A4A10B5044602605BB1806808B125F011
:106504004FF8606908B125F04BF8E06908B125F04F
:1065140047F82046FEF72EFB204610BD20540020ED
:1065240010B50446FFF7E2FF204625F035F8204673
:1065340010BD204625F030F825F038F938B504466A
:106544008068002835D0244B244D2E2280F8242046
:10655400A1681A680023C0E9025303742C2381F84C
:10656400253002F1230C531EC2F10100A268C118A8
:106574000A4413F8011F82F826106345F6D1184B1C
:106584001868431E00F1190CC0F10100A268C1187B
:106594000A4413F8011F82F84A106345F6D1A36830
:1065A4001049114C04200522C3E90540C3E9071230
:1065B40038BD682025F012FF0C4AA0600023C0E912
:1065C4000023C0E90233C0E90533C0E9073303748B
:1065D400838480F86430B6E780EC0020841F0020B8
:1065E4007CEC00206C28002064280020105400203B
:1065F40038B58568114B0360044655B12B68104AC1
:106604005B689342284609D1FFF748FF284624F0E7
:10661400C3FF2046FEF7AEFA204638BD9847204611
:10662400FEF7A8FA204638BD02E0284624F0B4FF5D
:106634002046FEF79FFA25F0B9F800BFFC58002069
:10664400B148000010B50446FFF7D2FF204624F0FD
:10665400A3FF204610BD204624F09EFF25F0A6F897
:1066640038B584685CB3214B21481968A0600023C5
:106674002246E36023742E202C23606201F1230C54
:1066840042F8283F4B1E13F8011F42F8041F6345CC
:10669400F9D1184B196804F1B8024B1E01F1190C19
:1066A40013F8011F42F8041F6345F9D11248134A35
:1066B40004210523C4E90501C4E9072338BD0546BF
:1066C4004FF4947025F08AFE0D4AA8600023C0E9B7
:1066D4000023C0E90233C0E90533C0E90733C0E948
:1066E40009330446037480F82431BCE780EC0020AD
:1066F400841F00207CEC00207428002088280020BF
:106704002054002038B58568114B0360044655B108
:106714002B68104A5B689342284609D1FFF7E6FECE
:10672400284624F039FF2046FEF724FA204638BDD7
:1067340098472046FEF71EFA204638BD02E0284658
:1067440024F02AFF2046FEF715FA25F02FF800BFA3
:10675400205900200149000010B50446FFF7D2FF7C
:10676400204624F019FF204610BD204624F014FFD3
:1067740025F01CF8009B03201A6070470020704726
:106784000020704704207047009B03201A60704764
:10679400D0E90032B2EB030C31D030B593F900E00C
:1067A4001A78BEF1000F16DAC12A24D9DF2A16D8C6
:1067B400BCF1010F56D093F801C00CF0C00EBEF12D
:1067C400800F18D10CEB821CACF54252914204D3D9
:1067D4000233036001E001330360104630BDEF2A49
:1067E40011D8BCF1020F3DD993F801C00CF0C00ED2
:1067F400BEF1800F39D04FF0FF32104630BD6FF03C
:10680400010210467047F42AF5D8BCF1030F29D9C8
:1068140093F801C00CF0C00EBEF1800FEBD1F02A4A
:106824003CD0F42A02D1BCF18F0FE4D89C7804F058
:10683400C00EBEF1800FDED193F803E00EF0C00568
:10684400802DD8D14FEA0C3C0CEB824202EB84122F
:106854007244A2F17272A2F502528A42BDD8043384
:106864000360BAE76FF00102B7E7E02A12D093F8A9
:1068740002E00EF0C004802CBDD14FEA8C1C0CEB5E
:1068840002327244A2F56222803A9142A5D30333C4
:106894000360A2E7BCF19F0FE9D8ACE7BCF18F0F0E
:1068A400C4D8A8E7D0E90032B2EB030C31D030B53C
:1068B40093F900E01A78BEF1000F16DAC12A24D940
:1068C400DF2A16D8BCF1010F56D093F801C00CF0A2
:1068D400C00EBEF1800F18D10CEB821CACF54252F5
:1068E400914204D30233036001E001330360104694
:1068F40030BDEF2A11D8BCF1020F3DD993F801C085
:106904000CF0C00EBEF1800F39D04FF0FF321046AC
:1069140030BD6FF0010210467047F42AF5D8BCF17F
:10692400030F29D993F801C00CF0C00EBEF1800FFB
:10693400EBD1F02A3CD0F42A02D1BCF18F0FE4D879
:106944009C7804F0C00EBEF1800FDED193F803E012
:106954000EF0C005802DD8D14FEA0C3C0CEB8242DE
:1069640002EB84127244A2F17272A2F502528A42BC
:10697400BDD804330360BAE76FF00102B7E7E02A39
:1069840012D093F802E00EF0C004802CBDD14FEA7F
:106994008C1C0CEB02327244A2F56222803A9142C2
:1069A400A5D303330360A2E7BCF19F0FE9D8ACE79A
:1069B400BCF18F0FC4D8A8E710B5034B036004469D
:1069C400FEF7D8F8204610BD9455002010B5034BAF
:1069D40003600446FEF7CEF8204610BD3C55002067
:1069E40010B5034B03600446FEF7C4F8204610BDFF
:1069F4006855002010B5034B03600446FEF7BAF84F
:106A0400204610BD1055002010B5054B0360044608
:106A1400FEF7B0F8204624F0BFFD204610BD00BFAD
:106A24009455002010B5054B03600446FEF7A2F808
:106A3400204624F0B1FD204610BD00BF3C55002087
:106A440010B5054B03600446FEF794F8204624F085
:106A5400A3FD204610BD00BF6855002010B5054BAE
:106A640003600446FEF786F8204624F095FD204690
:106A740010BD00BF105500207F2908D8D0E900328E
:106A84009A4243D05A1C0260012019707047B1F534
:106A9400006F10B414D2D0E900239B1A012B37D90C
:106AA4008B09541C403B04601370036801F03F01E0
:106AB4005A1C80390260197001205DF8044B70473C
:106AC400B1F5803F19D3B1F5881F21D2D0E9002355
:106AD4009B1A032B1CD98B0C541C103B04601370A1
:106AE4000268C1F30533541C803B046013700268D0
:106AF400C1F38513541C803BD5E7D0E900239B1ACE
:106B0400022B05D90B0B541C203BEEE700207047E9
:106B140000205DF8044B7047B1F5006F12D2D0E944
:106B240000239B1A012B48D913464FEA911CACF160
:106B3400400C03F802CB01F03F01803903600120CF
:106B440051707047B1F5803F16D2D0E90032D21AA5
:106B5400022A32D9C1F385124FEA113C803A01F07E
:106B64003F015A70ACF1200C8039DA1C83F800C064
:106B74000260012099707047B1F5881F1DD2D0E9D9
:106B84000032D21A032A18D9C1F30532803A10B45C
:106B94004FEA914C5A70C1F3851201F03F011C1D5C
:106BA400ACF1100C803A803983F800C09A7004600C
:106BB40001205DF8044BD97070470020704700BF76
:106BC4002DE9F843054640682C6884421646A0EB3C
:106BD400040237D00F4698461FE0B8F1010F2ED0BB
:106BE4004A452FD96488A4F55C43B3F5806FA4F1BA
:106BF4005774A4F5773422D204EB8121B14238468C
:106C04001DD8FFF739FF00B3D5E9004304EB49046D
:106C14009C422C60A3EB040214D02188A1F55843B4
:106C2400B3F5806F4FF00209A1F55C40D5D3B0F500
:106C3400806F04D3B1424FF001093846E1D90220F4
